{
  "_format": "hh-sol-artifact-1",
  "contractName": "ERC721Free",
  "sourceName": "contracts/ERC721FREE.sol",
  "abi": [
    {
      "inputs": [
        {
          "internalType": "address",
          "name": "initialOwner",
          "type": "address"
        }
      ],
      "stateMutability": "nonpayable",
      "type": "constructor"
    },
    {
      "inputs": [],
      "name": "ERC721EnumerableForbiddenBatchMint",
      "type": "error"
    },
    {
      "inputs": [
        {
          "internalType": "address",
          "name": "sender",
          "type": "address"
        },
        {
          "internalType": "uint256",
          "name": "tokenId",
          "type": "uint256"
        },
        {
          "internalType": "address",
          "name": "owner",
          "type": "address"
        }
      ],
      "name": "ERC721IncorrectOwner",
      "type": "error"
    },
    {
      "inputs": [
        {
          "internalType": "address",
          "name": "operator",
          "type": "address"
        },
        {
          "internalType": "uint256",
          "name": "tokenId",
          "type": "uint256"
        }
      ],
      "name": "ERC721InsufficientApproval",
      "type": "error"
    },
    {
      "inputs": [
        {
          "internalType": "address",
          "name": "approver",
          "type": "address"
        }
      ],
      "name": "ERC721InvalidApprover",
      "type": "error"
    },
    {
      "inputs": [
        {
          "internalType": "address",
          "name": "operator",
          "type": "address"
        }
      ],
      "name": "ERC721InvalidOperator",
      "type": "error"
    },
    {
      "inputs": [
        {
          "internalType": "address",
          "name": "owner",
          "type": "address"
        }
      ],
      "name": "ERC721InvalidOwner",
      "type": "error"
    },
    {
      "inputs": [
        {
          "internalType": "address",
          "name": "receiver",
          "type": "address"
        }
      ],
      "name": "ERC721InvalidReceiver",
      "type": "error"
    },
    {
      "inputs": [
        {
          "internalType": "address",
          "name": "sender",
          "type": "address"
        }
      ],
      "name": "ERC721InvalidSender",
      "type": "error"
    },
    {
      "inputs": [
        {
          "internalType": "uint256",
          "name": "tokenId",
          "type": "uint256"
        }
      ],
      "name": "ERC721NonexistentToken",
      "type": "error"
    },
    {
      "inputs": [
        {
          "internalType": "address",
          "name": "owner",
          "type": "address"
        },
        {
          "internalType": "uint256",
          "name": "index",
          "type": "uint256"
        }
      ],
      "name": "ERC721OutOfBoundsIndex",
      "type": "error"
    },
    {
      "inputs": [],
      "name": "EnforcedPause",
      "type": "error"
    },
    {
      "inputs": [],
      "name": "ExpectedPause",
      "type": "error"
    },
    {
      "inputs": [
        {
          "internalType": "address",
          "name": "owner",
          "type": "address"
        }
      ],
      "name": "OwnableInvalidOwner",
      "type": "error"
    },
    {
      "inputs": [
        {
          "internalType": "address",
          "name": "account",
          "type": "address"
        }
      ],
      "name": "OwnableUnauthorizedAccount",
      "type": "error"
    },
    {
      "anonymous": false,
      "inputs": [
        {
          "indexed": true,
          "internalType": "address",
          "name": "owner",
          "type": "address"
        },
        {
          "indexed": true,
          "internalType": "address",
          "name": "approved",
          "type": "address"
        },
        {
          "indexed": true,
          "internalType": "uint256",
          "name": "tokenId",
          "type": "uint256"
        }
      ],
      "name": "Approval",
      "type": "event"
    },
    {
      "anonymous": false,
      "inputs": [
        {
          "indexed": true,
          "internalType": "address",
          "name": "owner",
          "type": "address"
        },
        {
          "indexed": true,
          "internalType": "address",
          "name": "operator",
          "type": "address"
        },
        {
          "indexed": false,
          "internalType": "bool",
          "name": "approved",
          "type": "bool"
        }
      ],
      "name": "ApprovalForAll",
      "type": "event"
    },
    {
      "anonymous": false,
      "inputs": [
        {
          "indexed": false,
          "internalType": "uint256",
          "name": "_fromTokenId",
          "type": "uint256"
        },
        {
          "indexed": false,
          "internalType": "uint256",
          "name": "_toTokenId",
          "type": "uint256"
        }
      ],
      "name": "BatchMetadataUpdate",
      "type": "event"
    },
    {
      "anonymous": false,
      "inputs": [
        {
          "indexed": false,
          "internalType": "uint256",
          "name": "_tokenId",
          "type": "uint256"
        }
      ],
      "name": "MetadataUpdate",
      "type": "event"
    },
    {
      "anonymous": false,
      "inputs": [
        {
          "indexed": true,
          "internalType": "address",
          "name": "previousOwner",
          "type": "address"
        },
        {
          "indexed": true,
          "internalType": "address",
          "name": "newOwner",
          "type": "address"
        }
      ],
      "name": "OwnershipTransferred",
      "type": "event"
    },
    {
      "anonymous": false,
      "inputs": [
        {
          "indexed": false,
          "internalType": "address",
          "name": "account",
          "type": "address"
        }
      ],
      "name": "Paused",
      "type": "event"
    },
    {
      "anonymous": false,
      "inputs": [
        {
          "indexed": true,
          "internalType": "address",
          "name": "from",
          "type": "address"
        },
        {
          "indexed": true,
          "internalType": "address",
          "name": "to",
          "type": "address"
        },
        {
          "indexed": true,
          "internalType": "uint256",
          "name": "tokenId",
          "type": "uint256"
        }
      ],
      "name": "Transfer",
      "type": "event"
    },
    {
      "anonymous": false,
      "inputs": [
        {
          "indexed": false,
          "internalType": "address",
          "name": "account",
          "type": "address"
        }
      ],
      "name": "Unpaused",
      "type": "event"
    },
    {
      "inputs": [
        {
          "internalType": "address",
          "name": "to",
          "type": "address"
        },
        {
          "internalType": "uint256",
          "name": "tokenId",
          "type": "uint256"
        }
      ],
      "name": "approve",
      "outputs": [],
      "stateMutability": "nonpayable",
      "type": "function"
    },
    {
      "inputs": [
        {
          "internalType": "address",
          "name": "owner",
          "type": "address"
        }
      ],
      "name": "balanceOf",
      "outputs": [
        {
          "internalType": "uint256",
          "name": "",
          "type": "uint256"
        }
      ],
      "stateMutability": "view",
      "type": "function"
    },
    {
      "inputs": [
        {
          "internalType": "uint256",
          "name": "tokenId",
          "type": "uint256"
        }
      ],
      "name": "burn",
      "outputs": [],
      "stateMutability": "nonpayable",
      "type": "function"
    },
    {
      "inputs": [
        {
          "internalType": "uint256",
          "name": "tokenId",
          "type": "uint256"
        }
      ],
      "name": "getApproved",
      "outputs": [
        {
          "internalType": "address",
          "name": "",
          "type": "address"
        }
      ],
      "stateMutability": "view",
      "type": "function"
    },
    {
      "inputs": [
        {
          "internalType": "address",
          "name": "owner",
          "type": "address"
        },
        {
          "internalType": "address",
          "name": "operator",
          "type": "address"
        }
      ],
      "name": "isApprovedForAll",
      "outputs": [
        {
          "internalType": "bool",
          "name": "",
          "type": "bool"
        }
      ],
      "stateMutability": "view",
      "type": "function"
    },
    {
      "inputs": [],
      "name": "name",
      "outputs": [
        {
          "internalType": "string",
          "name": "",
          "type": "string"
        }
      ],
      "stateMutability": "view",
      "type": "function"
    },
    {
      "inputs": [],
      "name": "owner",
      "outputs": [
        {
          "internalType": "address",
          "name": "",
          "type": "address"
        }
      ],
      "stateMutability": "view",
      "type": "function"
    },
    {
      "inputs": [
        {
          "internalType": "uint256",
          "name": "tokenId",
          "type": "uint256"
        }
      ],
      "name": "ownerOf",
      "outputs": [
        {
          "internalType": "address",
          "name": "",
          "type": "address"
        }
      ],
      "stateMutability": "view",
      "type": "function"
    },
    {
      "inputs": [],
      "name": "pause",
      "outputs": [],
      "stateMutability": "nonpayable",
      "type": "function"
    },
    {
      "inputs": [],
      "name": "paused",
      "outputs": [
        {
          "internalType": "bool",
          "name": "",
          "type": "bool"
        }
      ],
      "stateMutability": "view",
      "type": "function"
    },
    {
      "inputs": [],
      "name": "renounceOwnership",
      "outputs": [],
      "stateMutability": "nonpayable",
      "type": "function"
    },
    {
      "inputs": [
        {
          "internalType": "address",
          "name": "to",
          "type": "address"
        },
        {
          "internalType": "string",
          "name": "uri",
          "type": "string"
        }
      ],
      "name": "safeMint",
      "outputs": [],
      "stateMutability": "nonpayable",
      "type": "function"
    },
    {
      "inputs": [
        {
          "internalType": "address",
          "name": "from",
          "type": "address"
        },
        {
          "internalType": "address",
          "name": "to",
          "type": "address"
        },
        {
          "internalType": "uint256",
          "name": "tokenId",
          "type": "uint256"
        }
      ],
      "name": "safeTransferFrom",
      "outputs": [],
      "stateMutability": "nonpayable",
      "type": "function"
    },
    {
      "inputs": [
        {
          "internalType": "address",
          "name": "from",
          "type": "address"
        },
        {
          "internalType": "address",
          "name": "to",
          "type": "address"
        },
        {
          "internalType": "uint256",
          "name": "tokenId",
          "type": "uint256"
        },
        {
          "internalType": "bytes",
          "name": "data",
          "type": "bytes"
        }
      ],
      "name": "safeTransferFrom",
      "outputs": [],
      "stateMutability": "nonpayable",
      "type": "function"
    },
    {
      "inputs": [
        {
          "internalType": "address",
          "name": "operator",
          "type": "address"
        },
        {
          "internalType": "bool",
          "name": "approved",
          "type": "bool"
        }
      ],
      "name": "setApprovalForAll",
      "outputs": [],
      "stateMutability": "nonpayable",
      "type": "function"
    },
    {
      "inputs": [
        {
          "internalType": "bytes4",
          "name": "interfaceId",
          "type": "bytes4"
        }
      ],
      "name": "supportsInterface",
      "outputs": [
        {
          "internalType": "bool",
          "name": "",
          "type": "bool"
        }
      ],
      "stateMutability": "view",
      "type": "function"
    },
    {
      "inputs": [],
      "name": "symbol",
      "outputs": [
        {
          "internalType": "string",
          "name": "",
          "type": "string"
        }
      ],
      "stateMutability": "view",
      "type": "function"
    },
    {
      "inputs": [
        {
          "internalType": "uint256",
          "name": "index",
          "type": "uint256"
        }
      ],
      "name": "tokenByIndex",
      "outputs": [
        {
          "internalType": "uint256",
          "name": "",
          "type": "uint256"
        }
      ],
      "stateMutability": "view",
      "type": "function"
    },
    {
      "inputs": [
        {
          "internalType": "address",
          "name": "owner",
          "type": "address"
        },
        {
          "internalType": "uint256",
          "name": "index",
          "type": "uint256"
        }
      ],
      "name": "tokenOfOwnerByIndex",
      "outputs": [
        {
          "internalType": "uint256",
          "name": "",
          "type": "uint256"
        }
      ],
      "stateMutability": "view",
      "type": "function"
    },
    {
      "inputs": [
        {
          "internalType": "uint256",
          "name": "tokenId",
          "type": "uint256"
        }
      ],
      "name": "tokenURI",
      "outputs": [
        {
          "internalType": "string",
          "name": "",
          "type": "string"
        }
      ],
      "stateMutability": "view",
      "type": "function"
    },
    {
      "inputs": [],
      "name": "totalSupply",
      "outputs": [
        {
          "internalType": "uint256",
          "name": "",
          "type": "uint256"
        }
      ],
      "stateMutability": "view",
      "type": "function"
    },
    {
      "inputs": [
        {
          "internalType": "address",
          "name": "from",
          "type": "address"
        },
        {
          "internalType": "address",
          "name": "to",
          "type": "address"
        },
        {
          "internalType": "uint256",
          "name": "tokenId",
          "type": "uint256"
        }
      ],
      "name": "transferFrom",
      "outputs": [],
      "stateMutability": "nonpayable",
      "type": "function"
    },
    {
      "inputs": [
        {
          "internalType": "address",
          "name": "newOwner",
          "type": "address"
        }
      ],
      "name": "transferOwnership",
      "outputs": [],
      "stateMutability": "nonpayable",
      "type": "function"
    },
    {
      "inputs": [],
      "name": "unpause",
      "outputs": [],
      "stateMutability": "nonpayable",
      "type": "function"
    }
  ],
  "bytecode": "0x608034620003c257601f601f196001600160401b0362001e88388190038481018416860183811187821017620003ac57869282916040528339602095869181010312620003c25751936001600160a01b0380861694909290858703620003c25762000069620003c7565b9260078452664e46544652454560c81b8185015262000087620003c7565b9060038252624d544b60e81b81830152845196848811620003ac576000978854966001978881811c91168015620003a1575b858210146200038d579081878493116200033a575b508490878311600114620002d9578b92620002cd575b5050600019600383901b1c191690871b1788555b8251948511620002b95785548681811c91168015620002ae575b838210146200029a5790818587969594931162000241575b5081938511600114620001dc5750508692620001d0575b5050600019600383901b1c191690821b1790555b600b54938315620001b7576001600160a81b03198516600891821b610100600160a81b031617600b5560405194901c16907f8be0079c531659141344cd1fd0a4f28419497f9722a3daafe3b4186f6b6457e09080a3611aa09081620003e88239f35b604051631e4fbdf760e01b815260048101849052602490fd5b01519050388062000141565b869593929193168589528389209389905b8282106200022757505084116200020d575b505050811b01905562000155565b015160001960f88460031b161c19169055388080620001ff565b8484015186558897909501949384019390810190620001ed565b9091929394508689528289208580880160051c82019285891062000290575b9188978a9297969594930160051c01915b828110620002815750506200012a565b8b815588975089910162000271565b9250819262000260565b634e487b7160e01b89526022600452602489fd5b90607f169062000112565b634e487b7160e01b88526041600452602488fd5b015190503880620000e4565b90848a9416918c8052868d20928d5b8882821062000323575050841162000309575b505050811b018855620000f8565b015160001960f88460031b161c19169055388080620002fb565b8385015186558d97909501949384019301620002e8565b9091508a8052848b208780850160051c82019287861062000383575b918b91869594930160051c01915b82811062000374575050620000ce565b8d81558594508b910162000364565b9250819262000356565b634e487b7160e01b8b52602260045260248bfd5b90607f1690620000b9565b634e487b7160e01b600052604160045260246000fd5b600080fd5b60408051919082016001600160401b03811183821017620003ac5760405256fe60e06040908082526004908136101561001757600080fd5b600060a05260a0513560e01c90816301ffc9a7146113355750806306fdde031461127e578063081812fc14611241578063095ea7b31461114b57806318160ddd1461112b57806323b872dd146111145780632f745c591461108d5780633f4ba83a1461101f57806342842e0e14610fef57806342966c6814610cdf5780634f6ccce714610c885780635c975abb14610c635780636352211e14610c3357806370a0823114610c07578063715018a614610ba05780638456cb5914610b415780638da5cb5b14610b1357806395d89b4114610a27578063a22cb4651461097f578063b88d4fde1461090e578063c87b56dd1461080c578063d204c45e14610235578063e985e9c5146101df5763f2fde38b1461013157600080fd5b346101d95760203660031901126101d95761014a611413565b6101526118ce565b6001600160a01b038181169390929084156101c0575050600b8054610100600160a81b03198116600893841b610100600160a81b03161790915560a051911c91909116907f8be0079c531659141344cd1fd0a4f28419497f9722a3daafe3b4186f6b6457e09080a360a05180f35b602492505190631e4fbdf760e01b825260a05190820152fd5b60a05180fd5b82346101d957806003193601126101d9576020906101fb611413565b61020361142e565b9060018060a01b0380911660a05152600584528260a05120911660a05152825260ff8160a05120541690519015158152f35b5090346101d957806003193601126101d95761024f611413565b906024359267ffffffffffffffff938481116101d957366023820112156101d95761028390369060248185013591016114e9565b600c549360001960c05260c05185146107f55760018501600c5583516102a881611479565b60a05181526001600160a01b03828116929083156107dd576102c8611a4c565b8760a0515260206080526002608051528660a05120541680159084821592836107a4575b8160a051526003608051528960a05120600181540190558a60a051526002608051528960a05120826bffffffffffffffffffffffff60a01b8254161790558a82847fddf252ad1be2c89b69c2b068fc378daa952ba7f163c4a11628f55a4df523b3ef60a05160a051a41561070b57506008548960a05152600960805152808960a0512055600160401b8110156106f457906103ab8a6103928460018a960160085561180d565b90919082549060031b91821b91600019901b1916179055565b03610692575b61067a573b61054a575b50508360a05152600a608051528260a0512091815195861161053357506103e28254611520565b601f81116104e6575b50608051906001601f871114610458579480917ff8e1a15aba9398e019f0b49df1a4fde98ee17ae345cb5f6b5e2c27f5033e8ce79660a0519261044d575b50508160011b9160c0519060031b1c19161790555b5190815260805190a160a05180f35b015190503880610429565b90601f198616918360a0515260805160a051209260a0515b8181106104cd57509160019391887ff8e1a15aba9398e019f0b49df1a4fde98ee17ae345cb5f6b5e2c27f5033e8ce79994106104b4575b505050811b01905561043e565b015160c05160f88460031b161c191690553880806104a7565b8284015185556080516001909501949384019301610470565b8260a0515260805160a05120601f870160051c8101916080518810610529575b601f0160051c01905b81811061051c57506103eb565b60a051815560010161050f565b9091508190610506565b604190634e487b7160e01b60a0515252602460a051fd5b8496939592919451630a85bd0160e11b91828252338883015260a051602483015284604483015260806064830152818061058b6080519360848301906113d3565b038160a0518a5af160a0519181610633575b50610600578787873d156105f8573d926105b6846114cd565b936105c3825195866114ab565b8452833d9060a05190608051013e5b835193846105f0575051633250574960e11b81529182015260249150fd5b849060805101fd5b6060926105d2565b63ffffffff60e0989693949795981b160361061d575038806103bb565b90506024925191633250574960e11b8352820152fd5b9091506080513d60805111610673575b61064d81836114ab565b8160805191810103126101d957516001600160e01b0319811681036101d957903861059d565b503d610643565b85516339e3563760e11b815260a05181870152602490fd5b61069b8261185a565b60c05181019081116106dd578460a051526006608051528760a051208160a0515260805152888860a05120558860a051526007608051528760a05120556103b1565b601187634e487b7160e01b60a0515252602460a051fd5b604188634e487b7160e01b60a0515252602460a051fd5b908082146103ab5761071c8161185a565b8a60a051526007608051528960a0512054908260a051526006608051528a60a0512091818103610772575b508b60a0515260076080515260a0518b60a051205560a051526080515260a0518960a05120556103ab565b8160a0515282608051528b60a05120548160a05152808d60a051205560a051526007608051528b60a051205538610747565b60008b815260046020526040902080546001600160a01b03191690558260a051526003608051528960a0512060c05181540190556102ec565b8651633250574960e11b815260a05181880152602490fd5b601183634e487b7160e01b60a0515252602460a051fd5b50346101d957602090816003193601126101d9573561082a81611893565b5060a05152600a81528160a05120918051809360a05190805461084c81611520565b91828552600191876001821691826000146108e75750506001146108a1575b50505061089d929161087e9103856114ab565b805161088981611479565b60a0519052519282849384528301906113d3565b0390f35b86935060a092919251528260a051209160a051925b8284106108cf575050508201018161087e61089d61086b565b8054848a0186015288955087949093019281016108b6565b60ff19168782015293151560051b8601909301935084925061087e915061089d905061086b565b50346101d95760803660031901126101d957610928611413565b61093061142e565b6044359060643567ffffffffffffffff81116101d957366023820112156101d95761097994816024610967933693013591016114e9565b9261097383838361155a565b336118fd565b60a05180f35b5090346101d957806003193601126101d957610999611413565b90602435918215158093036101d9576001600160a01b0316928315610a1257503360a0515260056020528060a051208360a051526020528060a0512060ff1981541660ff8416179055519081527f17307eab39ab6107e8899845ad3d59bd9653f200f220920489ca2b5937696c3160203392a360a05180f35b836024925191630b61174360e31b8352820152fd5b82346101d95760a0513660031901126101d95780519060a051908260019260015493610a5285611520565b9081845260209586600182169182600014610af1575050600114610a92575b505061089d9291610a839103856114ab565b519282849384528301906113d3565b90859250600160a051527fb10e2d527612073b26eecdfd717e6a320cf44b4afac2b0732d9fcbe2b7fa0cf69160a051925b828410610ad95750505082010181610a83610a71565b8054848a018601528895508794909301928101610ac3565b60ff19168682015292151560051b85019092019250839150610a839050610a71565b82346101d95760a0513660031901126101d957600b54905160089190911c6001600160a01b03168152602090f35b82346101d95760a0513660031901126101d95760207f62e78cea01bee320cd4e420270b5ea74000d11b0c9f74754ebdbfc544b05a25891610b806118ce565b610b88611a4c565b600160ff19600b541617600b5551338152a160a05180f35b346101d95760a0513660031901126101d957610bba6118ce565b600b8054610100600160a81b0319811690915560a0519060081c6001600160a01b03167f8be0079c531659141344cd1fd0a4f28419497f9722a3daafe3b4186f6b6457e08280a360a05180f35b82346101d95760203660031901126101d957602090610c2c610c27611413565b61185a565b9051908152f35b5090346101d95760203660031901126101d957610c5260209235611893565b90516001600160a01b039091168152f35b82346101d95760a0513660031901126101d95760209060ff600b541690519015158152f35b50346101d95760203660031901126101d957803590600854821015610cc157602083610cb38461180d565b91905490519160031b1c8152f35b90604492519163295f44f760e21b835260a051908301526024820152fd5b5090346101d957602090816003193601126101d9578235610cfe611a4c565b60a080518290526002845251829020546001600160a01b03908116903315159081610f3f575b5050801580159081610f08575b60a08051859052600287525185812080546001600160a01b03191690558490847fddf252ad1be2c89b69c2b068fc378daa952ba7f163c4a11628f55a4df523b3ef8280a415610e785750506008548160a0515260098452808360a0512055600160401b811015610e615781610392826001610daf940160085561180d565b60085460001993848201918211610e4a576009908360a05152818152610dda8560a05120549361180d565b90549060031b1c610dee816103928661180d565b60a05152528260a051205560a0515260a0519060a05120556008548015610e3357810190610e1b8261180d565b909182549160031b1b1916905560085560a05160a051f35b603183634e487b7160e01b60a0515252602460a051fd5b601186634e487b7160e01b60a0515252602460a051fd5b604185634e487b7160e01b60a0515252602460a051fd5b610e83575b50610daf565b610e8c8161185a565b8260a05152600785528360a05120549160a05152600685528360a0512091818103610eda575b508260a051526007855260a0518460a051205560a05152835260a0518260a051205538610e7d565b8160a051528286528460a05120548160a05152808660a051205560a05152600786528460a051205538610eb2565b600084815260046020526040902080546001600160a01b03191690558260a05152600386528460a051206000198154019055610d31565b81610f95575b5015610f52573880610d24565b82859115600014610f7257916024925191637e27328960e01b8352820152fd5b5163177e802f60e01b815233918101918252602082019290925281906040010390fd5b33831491508115610fc9575b8115610faf575b5038610f45565b90508260a0515285855233908460a0512054161438610fa8565b90508160a05152600585528360a051203360a05152855260ff8460a05120541690610fa1565b82346101d9576109799061100236611444565b9192519261100f84611479565b60a051845261097383838361155a565b5090346101d95760a0513660031901126101d95761103b6118ce565b600b549160ff83161561107f577f5db9ee0a495bf2e6ff9c91a7834c1ba4fdd244a5e8aa4e537bd38aeae4b073aa6020838560ff1916600b5551338152a160a05180f35b9051638dfc202b60e01b8152fd5b5090346101d957806003193601126101d9576110a7611413565b91602435906110b58461185a565b8210156110e9575060209260018060a01b031660a05152600683528160a051209060a0515282528060a05120549051908152f35b915163295f44f760e21b81526001600160a01b03909316918301918252602082015281906040010390fd5b346101d95761097961112536611444565b9161155a565b82346101d95760a0513660031901126101d9576020906008549051908152f35b5090346101d957806003193601126101d957611165611413565b9160243561117281611893565b3315158061122e575b806111ff575b6111e95760a0516001600160a01b0395861695839287929116907f8c5be1e5ebec7d5bd14f71427d1e84f3dd0314c0f7b2291e5b200ac8c7c3b9259080a460a0515260205260a05120906bffffffffffffffffffffffff60a01b82541617905560a05160a051f35b835163a9fbf51f60e01b81523381850152602490fd5b5060018060a01b03811660a0515260056020528360a051203360a0515260205260ff8460a05120541615611181565b506001600160a01b03811633141561117b565b5090346101d95760203660031901126101d957816020923561126281611893565b5060a05152825260018060a01b038160a0512054169051908152f35b82346101d95760a0513660031901126101d95780519060a051908260a05154926112a784611520565b80835260209460019086600182169182600014610af15750506001146112d957505061089d9291610a839103856114ab565b60a0805180525186935091907f290decd9548b62a8d60345a988386fc84ba6bc95484008f6362f93160ef3e5635b82841061131d5750505082010181610a83610a71565b8054848a018601528895508794909301928101611307565b82346101d95760203660031901126101d957359063ffffffff60e01b82168092036101d957602091632483248360e11b8114908115611376575b5015158152f35b63780e9d6360e01b811491508115611390575b508361136f565b6380ac58cd60e01b8114915081156113c2575b81156113b1575b5083611389565b6301ffc9a760e01b149050836113aa565b635b5e139f60e01b811491506113a3565b919082519283825260005b8481106113ff575050826000602080949584010152601f8019910116010190565b6020818301810151848301820152016113de565b600435906001600160a01b038216820361142957565b600080fd5b602435906001600160a01b038216820361142957565b6060906003190112611429576001600160a01b0390600435828116810361142957916024359081168103611429579060443590565b6020810190811067ffffffffffffffff82111761149557604052565b634e487b7160e01b600052604160045260246000fd5b90601f8019910116810190811067ffffffffffffffff82111761149557604052565b67ffffffffffffffff811161149557601f01601f191660200190565b9291926114f5826114cd565b9161150360405193846114ab565b829481845281830111611429578281602093846000960137010152565b90600182811c92168015611550575b602083101461153a57565b634e487b7160e01b600052602260045260246000fd5b91607f169161152f565b6001600160a01b03828116939184156117f457611575611a4c565b600094838652602095600287526040968488832054169633151580611766575b5087158015611733575b84845260038352898420805460010190558784526002835289842080546001600160a01b0319168617905587858a7fddf252ad1be2c89b69c2b068fc378daa952ba7f163c4a11628f55a4df523b3ef8780a4156116c75760085487845260098352808a852055600160401b8110156116b35787610392826001611625940160085561180d565b838803611661575b5050505016928383036116405750505050565b6064945051926364283d7b60e01b8452600484015260248301526044820152fd5b61166a9061185a565b60001981019390841161169f5782916007918a945260068152838320858452815287848420558783525220553880808061162d565b634e487b7160e01b83526011600452602483fd5b634e487b7160e01b84526041600452602484fd5b878414611625576116d78861185a565b878452600783528984205490898552600684528a852091818103611711575b5088855260078452848b812055845282528289812055611625565b8186528285528b862054818752808d8820558652600785528b862055386116f6565b600088815260046020526040902080546001600160a01b031916905588845260038352898420805460001901905561159f565b806117b3575b156117775738611595565b888789611794576024915190637e27328960e01b82526004820152fd5b905163177e802f60e01b81523360048201526024810191909152604490fd5b5033881480156117d8575b8061176c57508683526004825233868a852054161461176c565b5087835260058252888320338452825260ff89842054166117be565b604051633250574960e11b815260006004820152602490fd5b6008548110156118445760086000527ff3f7a9fe364faab93b216da50a3214154f22a0a2b415b23a84c8169e8b636ee30190600090565b634e487b7160e01b600052603260045260246000fd5b6001600160a01b0316801561187a57600052600360205260406000205490565b6040516322718ad960e21b815260006004820152602490fd5b6000818152600260205260409020546001600160a01b03169081156118b6575090565b60249060405190637e27328960e01b82526004820152fd5b600b5460081c6001600160a01b031633036118e557565b60405163118cdaa760e01b8152336004820152602490fd5b909192833b61190e575b5050505050565b604051630a85bd0160e11b8082526001600160a01b03938416600483015293831660248201526044810191909152608060648201526020959190931693909190839061195e9060848301906113d3565b039285816000958187895af1849181611a08575b506119d2575050503d6000146119ca573d61198c816114cd565b9061199a60405192836114ab565b81528091843d92013e5b805192836119c557604051633250574960e11b815260048101849052602490fd5b019050fd5b5060606119a4565b919450915063ffffffff60e01b16036119f057503880808080611907565b60249060405190633250574960e11b82526004820152fd5b9091508681813d8311611a45575b611a2081836114ab565b81010312611a4157516001600160e01b031981168103611a41579038611972565b8480fd5b503d611a16565b60ff600b5416611a5857565b60405163d93c066560e01b8152600490fdfea26469706673582212206a98ee3f2f3e0c41d7885869bb6ff9edf7a42edc0994ec6902612324662c187664736f6c63430008160033",
  "linkReferences": {},
  "deployedLinkReferences": {}
}