{
  "_format": "hh-sol-artifact-1",
  "contractName": "ERC721FREE",
  "sourceName": "contracts/ERC721FREE.sol",
  "abi": [
    {
      "inputs": [
        {
          "internalType": "address",
          "name": "initialOwner",
          "type": "address"
        }
      ],
      "stateMutability": "nonpayable",
      "type": "constructor"
    },
    {
      "inputs": [],
      "name": "ERC721EnumerableForbiddenBatchMint",
      "type": "error"
    },
    {
      "inputs": [
        {
          "internalType": "address",
          "name": "sender",
          "type": "address"
        },
        {
          "internalType": "uint256",
          "name": "tokenId",
          "type": "uint256"
        },
        {
          "internalType": "address",
          "name": "owner",
          "type": "address"
        }
      ],
      "name": "ERC721IncorrectOwner",
      "type": "error"
    },
    {
      "inputs": [
        {
          "internalType": "address",
          "name": "operator",
          "type": "address"
        },
        {
          "internalType": "uint256",
          "name": "tokenId",
          "type": "uint256"
        }
      ],
      "name": "ERC721InsufficientApproval",
      "type": "error"
    },
    {
      "inputs": [
        {
          "internalType": "address",
          "name": "approver",
          "type": "address"
        }
      ],
      "name": "ERC721InvalidApprover",
      "type": "error"
    },
    {
      "inputs": [
        {
          "internalType": "address",
          "name": "operator",
          "type": "address"
        }
      ],
      "name": "ERC721InvalidOperator",
      "type": "error"
    },
    {
      "inputs": [
        {
          "internalType": "address",
          "name": "owner",
          "type": "address"
        }
      ],
      "name": "ERC721InvalidOwner",
      "type": "error"
    },
    {
      "inputs": [
        {
          "internalType": "address",
          "name": "receiver",
          "type": "address"
        }
      ],
      "name": "ERC721InvalidReceiver",
      "type": "error"
    },
    {
      "inputs": [
        {
          "internalType": "address",
          "name": "sender",
          "type": "address"
        }
      ],
      "name": "ERC721InvalidSender",
      "type": "error"
    },
    {
      "inputs": [
        {
          "internalType": "uint256",
          "name": "tokenId",
          "type": "uint256"
        }
      ],
      "name": "ERC721NonexistentToken",
      "type": "error"
    },
    {
      "inputs": [
        {
          "internalType": "address",
          "name": "owner",
          "type": "address"
        },
        {
          "internalType": "uint256",
          "name": "index",
          "type": "uint256"
        }
      ],
      "name": "ERC721OutOfBoundsIndex",
      "type": "error"
    },
    {
      "inputs": [],
      "name": "EnforcedPause",
      "type": "error"
    },
    {
      "inputs": [],
      "name": "ExpectedPause",
      "type": "error"
    },
    {
      "inputs": [
        {
          "internalType": "address",
          "name": "owner",
          "type": "address"
        }
      ],
      "name": "OwnableInvalidOwner",
      "type": "error"
    },
    {
      "inputs": [
        {
          "internalType": "address",
          "name": "account",
          "type": "address"
        }
      ],
      "name": "OwnableUnauthorizedAccount",
      "type": "error"
    },
    {
      "anonymous": false,
      "inputs": [
        {
          "indexed": true,
          "internalType": "address",
          "name": "owner",
          "type": "address"
        },
        {
          "indexed": true,
          "internalType": "address",
          "name": "approved",
          "type": "address"
        },
        {
          "indexed": true,
          "internalType": "uint256",
          "name": "tokenId",
          "type": "uint256"
        }
      ],
      "name": "Approval",
      "type": "event"
    },
    {
      "anonymous": false,
      "inputs": [
        {
          "indexed": true,
          "internalType": "address",
          "name": "owner",
          "type": "address"
        },
        {
          "indexed": true,
          "internalType": "address",
          "name": "operator",
          "type": "address"
        },
        {
          "indexed": false,
          "internalType": "bool",
          "name": "approved",
          "type": "bool"
        }
      ],
      "name": "ApprovalForAll",
      "type": "event"
    },
    {
      "anonymous": false,
      "inputs": [
        {
          "indexed": false,
          "internalType": "uint256",
          "name": "_fromTokenId",
          "type": "uint256"
        },
        {
          "indexed": false,
          "internalType": "uint256",
          "name": "_toTokenId",
          "type": "uint256"
        }
      ],
      "name": "BatchMetadataUpdate",
      "type": "event"
    },
    {
      "anonymous": false,
      "inputs": [
        {
          "indexed": false,
          "internalType": "uint256",
          "name": "_tokenId",
          "type": "uint256"
        }
      ],
      "name": "MetadataUpdate",
      "type": "event"
    },
    {
      "anonymous": false,
      "inputs": [
        {
          "indexed": true,
          "internalType": "address",
          "name": "previousOwner",
          "type": "address"
        },
        {
          "indexed": true,
          "internalType": "address",
          "name": "newOwner",
          "type": "address"
        }
      ],
      "name": "OwnershipTransferred",
      "type": "event"
    },
    {
      "anonymous": false,
      "inputs": [
        {
          "indexed": false,
          "internalType": "address",
          "name": "account",
          "type": "address"
        }
      ],
      "name": "Paused",
      "type": "event"
    },
    {
      "anonymous": false,
      "inputs": [
        {
          "indexed": true,
          "internalType": "address",
          "name": "from",
          "type": "address"
        },
        {
          "indexed": true,
          "internalType": "address",
          "name": "to",
          "type": "address"
        },
        {
          "indexed": true,
          "internalType": "uint256",
          "name": "tokenId",
          "type": "uint256"
        }
      ],
      "name": "Transfer",
      "type": "event"
    },
    {
      "anonymous": false,
      "inputs": [
        {
          "indexed": false,
          "internalType": "address",
          "name": "account",
          "type": "address"
        }
      ],
      "name": "Unpaused",
      "type": "event"
    },
    {
      "inputs": [
        {
          "internalType": "address",
          "name": "to",
          "type": "address"
        },
        {
          "internalType": "uint256",
          "name": "tokenId",
          "type": "uint256"
        }
      ],
      "name": "approve",
      "outputs": [],
      "stateMutability": "nonpayable",
      "type": "function"
    },
    {
      "inputs": [
        {
          "internalType": "address",
          "name": "owner",
          "type": "address"
        }
      ],
      "name": "balanceOf",
      "outputs": [
        {
          "internalType": "uint256",
          "name": "",
          "type": "uint256"
        }
      ],
      "stateMutability": "view",
      "type": "function"
    },
    {
      "inputs": [
        {
          "internalType": "uint256",
          "name": "tokenId",
          "type": "uint256"
        }
      ],
      "name": "burn",
      "outputs": [],
      "stateMutability": "nonpayable",
      "type": "function"
    },
    {
      "inputs": [
        {
          "internalType": "uint256",
          "name": "tokenId",
          "type": "uint256"
        }
      ],
      "name": "getApproved",
      "outputs": [
        {
          "internalType": "address",
          "name": "",
          "type": "address"
        }
      ],
      "stateMutability": "view",
      "type": "function"
    },
    {
      "inputs": [
        {
          "internalType": "address",
          "name": "owner",
          "type": "address"
        },
        {
          "internalType": "address",
          "name": "operator",
          "type": "address"
        }
      ],
      "name": "isApprovedForAll",
      "outputs": [
        {
          "internalType": "bool",
          "name": "",
          "type": "bool"
        }
      ],
      "stateMutability": "view",
      "type": "function"
    },
    {
      "inputs": [],
      "name": "name",
      "outputs": [
        {
          "internalType": "string",
          "name": "",
          "type": "string"
        }
      ],
      "stateMutability": "view",
      "type": "function"
    },
    {
      "inputs": [],
      "name": "owner",
      "outputs": [
        {
          "internalType": "address",
          "name": "",
          "type": "address"
        }
      ],
      "stateMutability": "view",
      "type": "function"
    },
    {
      "inputs": [
        {
          "internalType": "uint256",
          "name": "tokenId",
          "type": "uint256"
        }
      ],
      "name": "ownerOf",
      "outputs": [
        {
          "internalType": "address",
          "name": "",
          "type": "address"
        }
      ],
      "stateMutability": "view",
      "type": "function"
    },
    {
      "inputs": [],
      "name": "pause",
      "outputs": [],
      "stateMutability": "nonpayable",
      "type": "function"
    },
    {
      "inputs": [],
      "name": "paused",
      "outputs": [
        {
          "internalType": "bool",
          "name": "",
          "type": "bool"
        }
      ],
      "stateMutability": "view",
      "type": "function"
    },
    {
      "inputs": [],
      "name": "renounceOwnership",
      "outputs": [],
      "stateMutability": "nonpayable",
      "type": "function"
    },
    {
      "inputs": [
        {
          "internalType": "address",
          "name": "to",
          "type": "address"
        },
        {
          "internalType": "string",
          "name": "uri",
          "type": "string"
        }
      ],
      "name": "safeMint",
      "outputs": [
        {
          "internalType": "uint256",
          "name": "",
          "type": "uint256"
        }
      ],
      "stateMutability": "nonpayable",
      "type": "function"
    },
    {
      "inputs": [
        {
          "internalType": "address",
          "name": "from",
          "type": "address"
        },
        {
          "internalType": "address",
          "name": "to",
          "type": "address"
        },
        {
          "internalType": "uint256",
          "name": "tokenId",
          "type": "uint256"
        }
      ],
      "name": "safeTransferFrom",
      "outputs": [],
      "stateMutability": "nonpayable",
      "type": "function"
    },
    {
      "inputs": [
        {
          "internalType": "address",
          "name": "from",
          "type": "address"
        },
        {
          "internalType": "address",
          "name": "to",
          "type": "address"
        },
        {
          "internalType": "uint256",
          "name": "tokenId",
          "type": "uint256"
        },
        {
          "internalType": "bytes",
          "name": "data",
          "type": "bytes"
        }
      ],
      "name": "safeTransferFrom",
      "outputs": [],
      "stateMutability": "nonpayable",
      "type": "function"
    },
    {
      "inputs": [
        {
          "internalType": "address",
          "name": "operator",
          "type": "address"
        },
        {
          "internalType": "bool",
          "name": "approved",
          "type": "bool"
        }
      ],
      "name": "setApprovalForAll",
      "outputs": [],
      "stateMutability": "nonpayable",
      "type": "function"
    },
    {
      "inputs": [
        {
          "internalType": "bytes4",
          "name": "interfaceId",
          "type": "bytes4"
        }
      ],
      "name": "supportsInterface",
      "outputs": [
        {
          "internalType": "bool",
          "name": "",
          "type": "bool"
        }
      ],
      "stateMutability": "view",
      "type": "function"
    },
    {
      "inputs": [],
      "name": "symbol",
      "outputs": [
        {
          "internalType": "string",
          "name": "",
          "type": "string"
        }
      ],
      "stateMutability": "view",
      "type": "function"
    },
    {
      "inputs": [
        {
          "internalType": "uint256",
          "name": "index",
          "type": "uint256"
        }
      ],
      "name": "tokenByIndex",
      "outputs": [
        {
          "internalType": "uint256",
          "name": "",
          "type": "uint256"
        }
      ],
      "stateMutability": "view",
      "type": "function"
    },
    {
      "inputs": [
        {
          "internalType": "address",
          "name": "owner",
          "type": "address"
        },
        {
          "internalType": "uint256",
          "name": "index",
          "type": "uint256"
        }
      ],
      "name": "tokenOfOwnerByIndex",
      "outputs": [
        {
          "internalType": "uint256",
          "name": "",
          "type": "uint256"
        }
      ],
      "stateMutability": "view",
      "type": "function"
    },
    {
      "inputs": [
        {
          "internalType": "uint256",
          "name": "tokenId",
          "type": "uint256"
        }
      ],
      "name": "tokenURI",
      "outputs": [
        {
          "internalType": "string",
          "name": "",
          "type": "string"
        }
      ],
      "stateMutability": "view",
      "type": "function"
    },
    {
      "inputs": [],
      "name": "totalSupply",
      "outputs": [
        {
          "internalType": "uint256",
          "name": "",
          "type": "uint256"
        }
      ],
      "stateMutability": "view",
      "type": "function"
    },
    {
      "inputs": [
        {
          "internalType": "address",
          "name": "from",
          "type": "address"
        },
        {
          "internalType": "address",
          "name": "to",
          "type": "address"
        },
        {
          "internalType": "uint256",
          "name": "tokenId",
          "type": "uint256"
        }
      ],
      "name": "transferFrom",
      "outputs": [],
      "stateMutability": "nonpayable",
      "type": "function"
    },
    {
      "inputs": [
        {
          "internalType": "address",
          "name": "newOwner",
          "type": "address"
        }
      ],
      "name": "transferOwnership",
      "outputs": [],
      "stateMutability": "nonpayable",
      "type": "function"
    },
    {
      "inputs": [],
      "name": "unpause",
      "outputs": [],
      "stateMutability": "nonpayable",
      "type": "function"
    }
  ],
  "bytecode": "0x608034620003c557601f601f196001600160401b0362001f77388190038481018416860183811187821017620003af57869282916040528339602095869181010312620003c55751936001600160a01b0380861694909290858703620003c55762000069620003ca565b92600a8452694552433732314652454560b01b818501526200008a620003ca565b9060038252624d544b60e81b81830152845196848811620003af576000978854966001978881811c91168015620003a4575b8582101462000390579081878493116200033d575b508490878311600114620002dc578b92620002d0575b5050600019600383901b1c191690871b1788555b8251948511620002bc5785548681811c91168015620002b1575b838210146200029d5790818587969594931162000244575b5081938511600114620001df5750508692620001d3575b5050600019600383901b1c191690821b1790555b600b54938315620001ba576001600160a81b03198516600891821b610100600160a81b031617600b5560405194901c16907f8be0079c531659141344cd1fd0a4f28419497f9722a3daafe3b4186f6b6457e09080a3611b8c9081620003eb8239f35b604051631e4fbdf760e01b815260048101849052602490fd5b01519050388062000144565b869593929193168589528389209389905b8282106200022a575050841162000210575b505050811b01905562000158565b015160001960f88460031b161c1916905538808062000202565b8484015186558897909501949384019390810190620001f0565b9091929394508689528289208580880160051c82019285891062000293575b9188978a9297969594930160051c01915b828110620002845750506200012d565b8b815588975089910162000274565b9250819262000263565b634e487b7160e01b89526022600452602489fd5b90607f169062000115565b634e487b7160e01b88526041600452602488fd5b015190503880620000e7565b90848a9416918c8052868d20928d5b888282106200032657505084116200030c575b505050811b018855620000fb565b015160001960f88460031b161c19169055388080620002fe565b8385015186558d97909501949384019301620002eb565b9091508a8052848b208780850160051c82019287861062000386575b918b91869594930160051c01915b82811062000377575050620000d1565b8d81558594508b910162000367565b9250819262000359565b634e487b7160e01b8b52602260045260248bfd5b90607f1690620000bc565b634e487b7160e01b600052604160045260246000fd5b600080fd5b60408051919082016001600160401b03811183821017620003af5760405256fe6080604081815260048036101561001557600080fd5b600092833560e01c90816301ffc9a7146111185750806306fdde0314611067578063081812fc1461102c578063095ea7b314610f5057806318160ddd14610f3157806323b872dd14610f195780632f745c5914610e955780633f4ba83a14610e2c57806342842e0e14610dfd57806342966c6814610b495780634f6ccce714610af55780635c975abb14610ad15780636352211e14610aa057806370a0823114610a73578063715018a614610a125780638456cb59146109b75780638da5cb5b1461098a57806395d89b411461089f578063a22cb46514610802578063b88d4fde1461078f578063c87b56dd14610754578063d204c45e1461021c578063e985e9c5146101ca5763f2fde38b1461012b57600080fd5b346101c65760203660031901126101c657610144611200565b61014c6116bb565b6001600160a01b038181169390929084156101b0575050600b8054610100600160a81b03198116600893841b610100600160a81b031617909155901c167f8be0079c531659141344cd1fd0a4f28419497f9722a3daafe3b4186f6b6457e08380a380f35b51631e4fbdf760e01b8152908101859052602490fd5b8280fd5b50503461021857806003193601126102185760ff816020936101ea611200565b6101f261121b565b6001600160a01b0391821683526005875283832091168252855220549151911615158152f35b5080fd5b50919034610218578060031936011261021857610237611200565b9267ffffffffffffffff60243581811161075057366023820112156107505761026990369060248186013591016112d6565b936102726116bb565b600c5494600019861461073d5760018601600c55845161029181611266565b8281526001600160a01b038816908115610726576102ad611b03565b87845260209860028a52898360018060a01b038a88205416878b8d831595861596876106f3575b86855260038252838520805460010190558285526002825283852080546001600160a01b031916881790558287877fddf252ad1be2c89b69c2b068fc378daa952ba7f163c4a11628f55a4df523b3ef8880a41561067a575050505090506008548b885260098d52808b892055600160401b811015610667579061037b8c6103628460018a96016008556115fa565b90919082549060031b91821b91600019901b1916179055565b0361061b575b610604573b6104e0575b5050858252600a87528482209381519384116104cd57509082916103af855461130d565b601f811161047d575b508791601f841160011461041a579261040f575b50508160011b916000199060031b1c19161790555b7ff8e1a15aba9398e019f0b49df1a4fde98ee17ae345cb5f6b5e2c27f5033e8ce7838251848152a151908152f35b0151905038806103cc565b8581528881209350601f198516905b8982821061046757505090846001959493921061044e575b505050811b0190556103e1565b015160001960f88460031b161c19169055388080610441565b6001859682939686015181550195019301610429565b90919250848352878320601f850160051c8101918986106104c3575b90601f86959493920160051c01905b8181106104b557506103b8565b8381558594506001016104a8565b9091508190610499565b634e487b7160e01b835260419052602482fd5b86959793949291965189818061051e630a85bd0160e11b958683528d33908401528a60248401528960448401526080606484015260848301906111db565b0381898c5af18691816105c0575b5061058c5750505050503d600014610584573d610548816112ba565b9061055584519283611298565b81528091863d92013e5b8051948561057e57505051633250574960e11b81529182015260249150fd5b85925001fd5b50606061055f565b63ffffffff60e099979893949695991b16036105aa5750388061038b565b84602491875191633250574960e11b8352820152fd5b9091508a81813d83116105fd575b6105d88183611298565b810103126105f957516001600160e01b0319811681036105f957903861052c565b8680fd5b503d6105ce565b87516339e3563760e11b8152808801869052602490fd5b61062482611647565b60001981019081116106545784875260068c528987208188528c528a8a8820558a875260078c5289872055610381565b634e487b7160e01b875260118952602487fd5b634e487b7160e01b885260418a52602488fd5b85850361068b575b5050505061037b565b60079161069786611647565b93818652838352808620549087875260068452808720968683036106d2575b9150505252898d81205589528d52878b812055878b8d8f610682565b868152878552818120548382528083832055815285855220558f808e6106b6565b600083815260046020526040902080546001600160a01b03191690558585526003825283852080546000190190556102d4565b8651633250574960e11b8152808701859052602490fd5b634e487b7160e01b825260118452602482fd5b8480fd5b50913461078c57602036600319011261078c57506107756107889235611878565b90519182916020835260208301906111db565b0390f35b80fd5b838234610218576080366003190112610218576107aa611200565b6107b261121b565b6044359060643567ffffffffffffffff81116107fe57366023820112156107fe576107fb948160246107e9933693013591016112d6565b926107f5838383611347565b336116ea565b80f35b8580fd5b5090346101c657806003193601126101c65761081c611200565b9060243591821515809303610750576001600160a01b031692831561088a5750338452600560205280842083855260205280842060ff1981541660ff8416179055519081527f17307eab39ab6107e8899845ad3d59bd9653f200f220920489ca2b5937696c3160203392a380f35b836024925191630b61174360e31b8352820152fd5b82843461078c578060031936011261078c578151918282600193600154946108c68661130d565b9182855260209687600182169182600014610963575050600114610907575b50505061078892916108f8910385611298565b519282849384528301906111db565b9190869350600183527fb10e2d527612073b26eecdfd717e6a320cf44b4afac2b0732d9fcbe2b7fa0cf65b82841061094b57505050820101816108f86107886108e5565b8054848a018601528895508794909301928101610932565b60ff19168782015293151560051b860190930193508492506108f8915061078890506108e5565b505034610218578160031936011261021857600b54905160089190911c6001600160a01b03168152602090f35b50503461021857816003193601126102185760207f62e78cea01bee320cd4e420270b5ea74000d11b0c9f74754ebdbfc544b05a258916109f56116bb565b6109fd611b03565b600160ff19600b541617600b5551338152a180f35b833461078c578060031936011261078c57610a2b6116bb565b600b8054610100600160a81b03198116909155819060081c6001600160a01b03167f8be0079c531659141344cd1fd0a4f28419497f9722a3daafe3b4186f6b6457e08280a380f35b50503461021857602036600319011261021857602090610a99610a94611200565b611647565b9051908152f35b50913461078c57602036600319011261078c5750610ac060209235611680565b90516001600160a01b039091168152f35b50503461021857816003193601126102185760209060ff600b541690519015158152f35b50346101c65760203660031901126101c657803592600854841015610b2e57602083610b20866115fa565b91905490519160031b1c8152f35b6044939192519263295f44f760e21b84528301526024820152fd5b5091903461021857602090816003193601126101c6578335610b69611b03565b80845260028352818420546001600160a01b03908116903315159081610d5b575b5050801580159081610d28575b8387526002865284872080546001600160a01b03191690558387847fddf252ad1be2c89b69c2b068fc378daa952ba7f163c4a11628f55a4df523b3ef8280a415610cb8575050600854818552600984528083862055600160401b811015610ca55781610362826001610c0c94016008556115fa565b60085460001993848201918211610c925790600983928795948652818152610c3785872054936115fa565b90549060031b1c610c4b81610362866115fa565b8652528284205582528120556008548015610c7f57810190610c6c826115fa565b909182549160031b1b1916905560085580f35b634e487b7160e01b835260318452602483fd5b634e487b7160e01b865260118752602486fd5b634e487b7160e01b855260418652602485fd5b610cc3575b50610c0c565b610ccc81611647565b82865260078552838620549186526006855283862091818103610d06575b5082865260078552858481205585528352838281205538610cbd565b8187528286528487205481885280868920558752600786528487205538610cea565b600084815260046020526040902080546001600160a01b0319169055828752600386528487208054600019019055610b97565b81610db1575b5015610d6e573880610b8a565b82869115600014610d8e57916024925191637e27328960e01b8352820152fd5b5163177e802f60e01b815233918101918252602082019290925281906040010390fd5b33831491508115610de0575b8115610dcb575b5038610d61565b83875287865284872054163314905038610dc4565b8287526005865284872033885286528487205460ff169150610dbd565b505034610218576107fb90610e1136611231565b91925192610e1e84611266565b8584526107f5838383611347565b50346101c657826003193601126101c657610e456116bb565b600b549060ff821615610e87575060ff1916600b55513381527f5db9ee0a495bf2e6ff9c91a7834c1ba4fdd244a5e8aa4e537bd38aeae4b073aa90602090a180f35b8251638dfc202b60e01b8152fd5b50913461078c578160031936011261078c57610eaf611200565b9260243590610ebd85611647565b821015610eed57506001600160a01b03909316815260066020908152828220938252928352819020549051908152f35b925163295f44f760e21b81526001600160a01b0390941692840192835260208301525081906040010390fd5b833461078c576107fb610f2b36611231565b91611347565b5050346102185781600319360112610218576020906008549051908152f35b5090346101c657806003193601126101c657610f6a611200565b91602435610f7781611680565b33151580611019575b80610ff0575b610fda576001600160a01b039485169482918691167f8c5be1e5ebec7d5bd14f71427d1e84f3dd0314c0f7b2291e5b200ac8c7c3b9258880a48452602052822080546001600160a01b031916909117905580f35b835163a9fbf51f60e01b81523381850152602490fd5b506001600160a01b03811686526005602090815284872033885290528386205460ff1615610f86565b506001600160a01b038116331415610f80565b50346101c65760203660031901126101c65791826020933561104d81611680565b50825283528190205490516001600160a01b039091168152f35b82843461078c578060031936011261078c57815191828283546110898161130d565b90818452602095600191876001821691826000146109635750506001146110bd5750505061078892916108f8910385611298565b91908693508280527f290decd9548b62a8d60345a988386fc84ba6bc95484008f6362f93160ef3e5635b82841061110057505050820101816108f86107886108e5565b8054848a0186015288955087949093019281016110e7565b925050346101c65760203660031901126101c6573563ffffffff60e01b81168091036101c65760209250632483248360e11b811490811561115b575b5015158152f35b63780e9d6360e01b811491508115611175575b5038611154565b6380ac58cd60e01b8114915081156111a7575b8115611196575b503861116e565b6301ffc9a760e01b1490503861118f565b635b5e139f60e01b81149150611188565b60005b8381106111cb5750506000910152565b81810151838201526020016111bb565b906020916111f4815180928185528580860191016111b8565b601f01601f1916010190565b600435906001600160a01b038216820361121657565b600080fd5b602435906001600160a01b038216820361121657565b6060906003190112611216576001600160a01b0390600435828116810361121657916024359081168103611216579060443590565b6020810190811067ffffffffffffffff82111761128257604052565b634e487b7160e01b600052604160045260246000fd5b90601f8019910116810190811067ffffffffffffffff82111761128257604052565b67ffffffffffffffff811161128257601f01601f191660200190565b9291926112e2826112ba565b916112f06040519384611298565b829481845281830111611216578281602093846000960137010152565b90600182811c9216801561133d575b602083101461132757565b634e487b7160e01b600052602260045260246000fd5b91607f169161131c565b6001600160a01b03828116939184156115e157611362611b03565b600094838652602095600287526040968488832054169633151580611553575b5087158015611520575b84845260038352898420805460010190558784526002835289842080546001600160a01b0319168617905587858a7fddf252ad1be2c89b69c2b068fc378daa952ba7f163c4a11628f55a4df523b3ef8780a4156114b45760085487845260098352808a852055600160401b8110156114a0578761036282600161141294016008556115fa565b83880361144e575b50505050169283830361142d5750505050565b6064945051926364283d7b60e01b8452600484015260248301526044820152fd5b61145790611647565b60001981019390841161148c5782916007918a945260068152838320858452815287848420558783525220553880808061141a565b634e487b7160e01b83526011600452602483fd5b634e487b7160e01b84526041600452602484fd5b878414611412576114c488611647565b878452600783528984205490898552600684528a8520918181036114fe575b5088855260078452848b812055845282528289812055611412565b8186528285528b862054818752808d8820558652600785528b862055386114e3565b600088815260046020526040902080546001600160a01b031916905588845260038352898420805460001901905561138c565b806115a0575b156115645738611382565b888789611581576024915190637e27328960e01b82526004820152fd5b905163177e802f60e01b81523360048201526024810191909152604490fd5b5033881480156115c5575b8061155957508683526004825233868a8520541614611559565b5087835260058252888320338452825260ff89842054166115ab565b604051633250574960e11b815260006004820152602490fd5b6008548110156116315760086000527ff3f7a9fe364faab93b216da50a3214154f22a0a2b415b23a84c8169e8b636ee30190600090565b634e487b7160e01b600052603260045260246000fd5b6001600160a01b0316801561166757600052600360205260406000205490565b6040516322718ad960e21b815260006004820152602490fd5b6000818152600260205260409020546001600160a01b03169081156116a3575090565b60249060405190637e27328960e01b82526004820152fd5b600b5460081c6001600160a01b031633036116d257565b60405163118cdaa760e01b8152336004820152602490fd5b909192833b6116fb575b5050505050565b604051630a85bd0160e11b8082526001600160a01b03938416600483015293831660248201526044810191909152608060648201526020959190931693909190839061174b9060848301906111db565b039285816000958187895af18491816117f5575b506117bf575050503d6000146117b7573d611779816112ba565b906117876040519283611298565b81528091843d92013e5b805192836117b257604051633250574960e11b815260048101849052602490fd5b019050fd5b506060611791565b919450915063ffffffff60e01b16036117dd575038808080806116f4565b60249060405190633250574960e11b82526004820152fd5b9091508681813d831161182e575b61180d8183611298565b8101031261075057516001600160e01b03198116810361075057903861175f565b503d611803565b602061187691939293604051948161185687935180928680870191016111b8565b820161186a825180938680850191016111b8565b01038085520183611298565b565b61188181611680565b506000818152600a602091600a8352604081206040518291818154936118a68561130d565b9283835260019589600182169182600014611ae3575050600114611aa5575b506118d292500382611298565b6118da611b21565b805115611a9b578151611a8b5750506118f285611680565b506118fb611b21565b805190959015611a73579160219080847a184f03e93ff9f4daa797ed6e38ed64bf6a1f0100000000000000008181811015611a64575b5050600a90886d04ee2d6d415b85acef810000000080831015611a58575b5050662386f26fc1000080821015611a4b575b506305f5e10080821015611a3e575b5061271080821015611a31575b506064811015611a23575b1015611a19575b90839493929160018201976119a4896112ba565b986119b26040519a8b611298565b808a526119c1601f19916112ba565b019036908a013750860101905b6119e3575b505050506119e091611835565b90565b600019019083906f181899199a1a9b1b9c1cb0b131b232b360811b8282061a835304918215611a14579190826119ce565b6119d3565b9060010190611990565b606460029104930192611989565b600491049301923861197e565b6008910493019238611971565b6010910493019238611962565b9401939004883861194f565b60409450049050600a38611931565b50509250505060405190611a8682611266565b815290565b9350935050506119e09250611835565b5094505050505090565b915050845281868086208587915b858310611aca5750506118d29350820101386118c5565b8091929450548385880101520191018790858593611ab3565b60ff1916858201526118d295151560051b85010192503891506118c59050565b60ff600b5416611b0f57565b60405163d93c066560e01b8152600490fd5b604051906040820182811067ffffffffffffffff8211176112825760405260088252674e4654204652454560c01b602083015256fea26469706673582212208cd51171b80977c830fd663caaea87e08f3b2a93e94c91a63b6a38fb42a8504664736f6c63430008160033",
  "linkReferences": {},
  "deployedLinkReferences": {}
}