{
  "_format": "hh-sol-artifact-1",
  "contractName": "Koolinart",
  "sourceName": "contracts/Koolinart.sol",
  "abi": [
    {
      "inputs": [
        {
          "internalType": "address",
          "name": "initialOwner",
          "type": "address"
        }
      ],
      "stateMutability": "nonpayable",
      "type": "constructor"
    },
    {
      "inputs": [],
      "name": "ECDSAInvalidSignature",
      "type": "error"
    },
    {
      "inputs": [
        {
          "internalType": "uint256",
          "name": "length",
          "type": "uint256"
        }
      ],
      "name": "ECDSAInvalidSignatureLength",
      "type": "error"
    },
    {
      "inputs": [
        {
          "internalType": "bytes32",
          "name": "s",
          "type": "bytes32"
        }
      ],
      "name": "ECDSAInvalidSignatureS",
      "type": "error"
    },
    {
      "inputs": [
        {
          "internalType": "address",
          "name": "spender",
          "type": "address"
        },
        {
          "internalType": "uint256",
          "name": "allowance",
          "type": "uint256"
        },
        {
          "internalType": "uint256",
          "name": "needed",
          "type": "uint256"
        }
      ],
      "name": "ERC20InsufficientAllowance",
      "type": "error"
    },
    {
      "inputs": [
        {
          "internalType": "address",
          "name": "sender",
          "type": "address"
        },
        {
          "internalType": "uint256",
          "name": "balance",
          "type": "uint256"
        },
        {
          "internalType": "uint256",
          "name": "needed",
          "type": "uint256"
        }
      ],
      "name": "ERC20InsufficientBalance",
      "type": "error"
    },
    {
      "inputs": [
        {
          "internalType": "address",
          "name": "approver",
          "type": "address"
        }
      ],
      "name": "ERC20InvalidApprover",
      "type": "error"
    },
    {
      "inputs": [
        {
          "internalType": "address",
          "name": "receiver",
          "type": "address"
        }
      ],
      "name": "ERC20InvalidReceiver",
      "type": "error"
    },
    {
      "inputs": [
        {
          "internalType": "address",
          "name": "sender",
          "type": "address"
        }
      ],
      "name": "ERC20InvalidSender",
      "type": "error"
    },
    {
      "inputs": [
        {
          "internalType": "address",
          "name": "spender",
          "type": "address"
        }
      ],
      "name": "ERC20InvalidSpender",
      "type": "error"
    },
    {
      "inputs": [
        {
          "internalType": "uint256",
          "name": "deadline",
          "type": "uint256"
        }
      ],
      "name": "ERC2612ExpiredSignature",
      "type": "error"
    },
    {
      "inputs": [
        {
          "internalType": "address",
          "name": "signer",
          "type": "address"
        },
        {
          "internalType": "address",
          "name": "owner",
          "type": "address"
        }
      ],
      "name": "ERC2612InvalidSigner",
      "type": "error"
    },
    {
      "inputs": [],
      "name": "EnforcedPause",
      "type": "error"
    },
    {
      "inputs": [],
      "name": "ExpectedPause",
      "type": "error"
    },
    {
      "inputs": [
        {
          "internalType": "address",
          "name": "account",
          "type": "address"
        },
        {
          "internalType": "uint256",
          "name": "currentNonce",
          "type": "uint256"
        }
      ],
      "name": "InvalidAccountNonce",
      "type": "error"
    },
    {
      "inputs": [],
      "name": "InvalidShortString",
      "type": "error"
    },
    {
      "inputs": [
        {
          "internalType": "address",
          "name": "owner",
          "type": "address"
        }
      ],
      "name": "OwnableInvalidOwner",
      "type": "error"
    },
    {
      "inputs": [
        {
          "internalType": "address",
          "name": "account",
          "type": "address"
        }
      ],
      "name": "OwnableUnauthorizedAccount",
      "type": "error"
    },
    {
      "inputs": [
        {
          "internalType": "string",
          "name": "str",
          "type": "string"
        }
      ],
      "name": "StringTooLong",
      "type": "error"
    },
    {
      "anonymous": false,
      "inputs": [
        {
          "indexed": true,
          "internalType": "address",
          "name": "owner",
          "type": "address"
        },
        {
          "indexed": true,
          "internalType": "address",
          "name": "spender",
          "type": "address"
        },
        {
          "indexed": false,
          "internalType": "uint256",
          "name": "value",
          "type": "uint256"
        }
      ],
      "name": "Approval",
      "type": "event"
    },
    {
      "anonymous": false,
      "inputs": [],
      "name": "EIP712DomainChanged",
      "type": "event"
    },
    {
      "anonymous": false,
      "inputs": [
        {
          "indexed": true,
          "internalType": "address",
          "name": "previousOwner",
          "type": "address"
        },
        {
          "indexed": true,
          "internalType": "address",
          "name": "newOwner",
          "type": "address"
        }
      ],
      "name": "OwnershipTransferred",
      "type": "event"
    },
    {
      "anonymous": false,
      "inputs": [
        {
          "indexed": false,
          "internalType": "address",
          "name": "account",
          "type": "address"
        }
      ],
      "name": "Paused",
      "type": "event"
    },
    {
      "anonymous": false,
      "inputs": [
        {
          "indexed": true,
          "internalType": "address",
          "name": "from",
          "type": "address"
        },
        {
          "indexed": true,
          "internalType": "address",
          "name": "to",
          "type": "address"
        },
        {
          "indexed": false,
          "internalType": "uint256",
          "name": "value",
          "type": "uint256"
        }
      ],
      "name": "Transfer",
      "type": "event"
    },
    {
      "anonymous": false,
      "inputs": [
        {
          "indexed": false,
          "internalType": "address",
          "name": "account",
          "type": "address"
        }
      ],
      "name": "Unpaused",
      "type": "event"
    },
    {
      "inputs": [],
      "name": "DOMAIN_SEPARATOR",
      "outputs": [
        {
          "internalType": "bytes32",
          "name": "",
          "type": "bytes32"
        }
      ],
      "stateMutability": "view",
      "type": "function"
    },
    {
      "inputs": [
        {
          "internalType": "address",
          "name": "owner",
          "type": "address"
        },
        {
          "internalType": "address",
          "name": "spender",
          "type": "address"
        }
      ],
      "name": "allowance",
      "outputs": [
        {
          "internalType": "uint256",
          "name": "",
          "type": "uint256"
        }
      ],
      "stateMutability": "view",
      "type": "function"
    },
    {
      "inputs": [
        {
          "internalType": "address",
          "name": "spender",
          "type": "address"
        },
        {
          "internalType": "uint256",
          "name": "value",
          "type": "uint256"
        }
      ],
      "name": "approve",
      "outputs": [
        {
          "internalType": "bool",
          "name": "",
          "type": "bool"
        }
      ],
      "stateMutability": "nonpayable",
      "type": "function"
    },
    {
      "inputs": [
        {
          "internalType": "address",
          "name": "account",
          "type": "address"
        }
      ],
      "name": "balanceOf",
      "outputs": [
        {
          "internalType": "uint256",
          "name": "",
          "type": "uint256"
        }
      ],
      "stateMutability": "view",
      "type": "function"
    },
    {
      "inputs": [
        {
          "internalType": "uint256",
          "name": "value",
          "type": "uint256"
        }
      ],
      "name": "burn",
      "outputs": [],
      "stateMutability": "nonpayable",
      "type": "function"
    },
    {
      "inputs": [
        {
          "internalType": "address",
          "name": "account",
          "type": "address"
        },
        {
          "internalType": "uint256",
          "name": "value",
          "type": "uint256"
        }
      ],
      "name": "burnFrom",
      "outputs": [],
      "stateMutability": "nonpayable",
      "type": "function"
    },
    {
      "inputs": [],
      "name": "decimals",
      "outputs": [
        {
          "internalType": "uint8",
          "name": "",
          "type": "uint8"
        }
      ],
      "stateMutability": "view",
      "type": "function"
    },
    {
      "inputs": [],
      "name": "eip712Domain",
      "outputs": [
        {
          "internalType": "bytes1",
          "name": "fields",
          "type": "bytes1"
        },
        {
          "internalType": "string",
          "name": "name",
          "type": "string"
        },
        {
          "internalType": "string",
          "name": "version",
          "type": "string"
        },
        {
          "internalType": "uint256",
          "name": "chainId",
          "type": "uint256"
        },
        {
          "internalType": "address",
          "name": "verifyingContract",
          "type": "address"
        },
        {
          "internalType": "bytes32",
          "name": "salt",
          "type": "bytes32"
        },
        {
          "internalType": "uint256[]",
          "name": "extensions",
          "type": "uint256[]"
        }
      ],
      "stateMutability": "view",
      "type": "function"
    },
    {
      "inputs": [
        {
          "internalType": "address",
          "name": "to",
          "type": "address"
        },
        {
          "internalType": "uint256",
          "name": "amount",
          "type": "uint256"
        }
      ],
      "name": "mint",
      "outputs": [],
      "stateMutability": "nonpayable",
      "type": "function"
    },
    {
      "inputs": [],
      "name": "name",
      "outputs": [
        {
          "internalType": "string",
          "name": "",
          "type": "string"
        }
      ],
      "stateMutability": "view",
      "type": "function"
    },
    {
      "inputs": [
        {
          "internalType": "address",
          "name": "owner",
          "type": "address"
        }
      ],
      "name": "nonces",
      "outputs": [
        {
          "internalType": "uint256",
          "name": "",
          "type": "uint256"
        }
      ],
      "stateMutability": "view",
      "type": "function"
    },
    {
      "inputs": [],
      "name": "owner",
      "outputs": [
        {
          "internalType": "address",
          "name": "",
          "type": "address"
        }
      ],
      "stateMutability": "view",
      "type": "function"
    },
    {
      "inputs": [],
      "name": "pause",
      "outputs": [],
      "stateMutability": "nonpayable",
      "type": "function"
    },
    {
      "inputs": [],
      "name": "paused",
      "outputs": [
        {
          "internalType": "bool",
          "name": "",
          "type": "bool"
        }
      ],
      "stateMutability": "view",
      "type": "function"
    },
    {
      "inputs": [
        {
          "internalType": "address",
          "name": "owner",
          "type": "address"
        },
        {
          "internalType": "address",
          "name": "spender",
          "type": "address"
        },
        {
          "internalType": "uint256",
          "name": "value",
          "type": "uint256"
        },
        {
          "internalType": "uint256",
          "name": "deadline",
          "type": "uint256"
        },
        {
          "internalType": "uint8",
          "name": "v",
          "type": "uint8"
        },
        {
          "internalType": "bytes32",
          "name": "r",
          "type": "bytes32"
        },
        {
          "internalType": "bytes32",
          "name": "s",
          "type": "bytes32"
        }
      ],
      "name": "permit",
      "outputs": [],
      "stateMutability": "nonpayable",
      "type": "function"
    },
    {
      "inputs": [],
      "name": "renounceOwnership",
      "outputs": [],
      "stateMutability": "nonpayable",
      "type": "function"
    },
    {
      "inputs": [],
      "name": "symbol",
      "outputs": [
        {
          "internalType": "string",
          "name": "",
          "type": "string"
        }
      ],
      "stateMutability": "view",
      "type": "function"
    },
    {
      "inputs": [],
      "name": "totalSupply",
      "outputs": [
        {
          "internalType": "uint256",
          "name": "",
          "type": "uint256"
        }
      ],
      "stateMutability": "view",
      "type": "function"
    },
    {
      "inputs": [
        {
          "internalType": "address",
          "name": "to",
          "type": "address"
        },
        {
          "internalType": "uint256",
          "name": "value",
          "type": "uint256"
        }
      ],
      "name": "transfer",
      "outputs": [
        {
          "internalType": "bool",
          "name": "",
          "type": "bool"
        }
      ],
      "stateMutability": "nonpayable",
      "type": "function"
    },
    {
      "inputs": [
        {
          "internalType": "address",
          "name": "from",
          "type": "address"
        },
        {
          "internalType": "address",
          "name": "to",
          "type": "address"
        },
        {
          "internalType": "uint256",
          "name": "value",
          "type": "uint256"
        }
      ],
      "name": "transferFrom",
      "outputs": [
        {
          "internalType": "bool",
          "name": "",
          "type": "bool"
        }
      ],
      "stateMutability": "nonpayable",
      "type": "function"
    },
    {
      "inputs": [
        {
          "internalType": "address",
          "name": "newOwner",
          "type": "address"
        }
      ],
      "name": "transferOwnership",
      "outputs": [],
      "stateMutability": "nonpayable",
      "type": "function"
    },
    {
      "inputs": [],
      "name": "unpause",
      "outputs": [],
      "stateMutability": "nonpayable",
      "type": "function"
    }
  ],
  "bytecode": "0x610160346200061157601f62001c8a38819003918201601f191683019291906001600160401b0384118385101762000616578160209284926040968752833981010312620006115751906001600160a01b03821682036200061157805162000067816200062c565b600d815260208101916c12d3d3d31253905495151154d5609a1b9384845281519462000093866200062c565b600d86526020860152815190620000aa826200062c565b6004918281526312d3949560e21b6020820152835196620000cb886200062c565b60018852603160f81b60208901528051906001600160401b038211620005fc57600354600181811c91168015620005f1575b6020821014620005dc579081601f84931162000567575b50602090601f8311600114620004dc57600092620004d0575b50508160011b916000199060031b1c1916176003555b8051906001600160401b038211620003b5578354600181811c91168015620004c5575b6020821014620004b0579081601f84931162000458575b50602090601f8311600114620003ed57600092620003e1575b50508160011b916000199060031b1c19161782555b600554906001600160a01b03811615620003ca576001600160a81b03198216600882811b610100600160a81b0316919091176005556001600160a01b0391821692901c167f8be0079c531659141344cd1fd0a4f28419497f9722a3daafe3b4186f6b6457e0600080a36200021f8362000648565b93610120948552620002318662000825565b93610140948552519020948560e0526020815191012094610100958087524660a05283519060208201927f8b73c3c69bb8fe3d512ecc4cf759cc79239f7b179b0ffacaa9a75d522b39400f84528583015260608201524660808201523060a082015260a0815260c081019181831060018060401b03841117620003b557828552815190206080523060c05233156200039e57505060ff6005541662000390576002546ec097ce7bc90715a56ae85c589c0000918282018092116200037b575060025533600052600060205281600020818154019055815190815260007fddf252ad1be2c89b69c2b068fc378daa952ba7f163c4a11628f55a4df523b3ef60203393a351916112ac9384620009de853960805184610d24015260a05184610df0015260c05184610cee015260e05184610d7301525183610d99015251826104cd015251816104f70152f35b601190634e487b7160e01b6000525260246000fd5b905163d93c066560e01b8152fd5b63ec442f0560e01b8252600060c490910152602490fd5b604184634e487b7160e01b6000525260246000fd5b8351631e4fbdf760e01b8152600081850152602490fd5b01519050388062000196565b6000868152602081209350601f198516905b8181106200043f575090846001959493921062000425575b505050811b018255620001ab565b015160001960f88460031b161c1916905538808062000417565b92936020600181928786015181550195019301620003ff565b909150846000526020600020601f840160051c81019160208510620004a5575b90601f859493920160051c01905b8181106200049557506200017d565b6000815584935060010162000486565b909150819062000478565b602285634e487b7160e01b6000525260246000fd5b90607f169062000166565b0151905038806200012d565b600360009081527fc2575a0e9e593c00f959f8c92f12db2869c3395a3b0502d05e2516446f71f85b9350601f198516905b8181106200054e575090846001959493921062000534575b505050811b0160035562000143565b015160001960f88460031b161c1916905538808062000525565b929360206001819287860151815501950193016200050d565b60036000529091507fc2575a0e9e593c00f959f8c92f12db2869c3395a3b0502d05e2516446f71f85b601f840160051c81019160208510620005d1575b90601f859493920160051c01905b818110620005c1575062000114565b60008155849350600101620005b2565b9091508190620005a4565b602286634e487b7160e01b6000525260246000fd5b90607f1690620000fd565b604185634e487b7160e01b6000525260246000fd5b600080fd5b634e487b7160e01b600052604160045260246000fd5b604081019081106001600160401b038211176200061657604052565b805160209081811015620006e55750601f8251116200068457808251920151908083106200067557501790565b82600019910360031b1b161790565b90604051809263305a27a960e01b82528060048301528251908160248401526000935b828510620006cb575050604492506000838284010152601f80199101168101030190fd5b8481018201518686016044015293810193859350620006a7565b906001600160401b0382116200061657600654926001938481811c911680156200081a575b838210146200080457601f8111620007ca575b5081601f84116001146200075e575092829391839260009462000752575b50501b916000199060031b1c19161760065560ff90565b0151925038806200073b565b919083601f198116600660005284600020946000905b88838310620007af575050501062000795575b505050811b0160065560ff90565b015160001960f88460031b161c1916905538808062000787565b85870151885590960195948501948793509081019062000774565b600660005284601f84600020920160051c820191601f860160051c015b828110620007f75750506200071d565b60008155018590620007e7565b634e487b7160e01b600052602260045260246000fd5b90607f16906200070a565b805160209081811015620008b35750601f8251116200085257808251920151908083106200067557501790565b90604051809263305a27a960e01b82528060048301528251908160248401526000935b82851062000899575050604492506000838284010152601f80199101168101030190fd5b848101820151868601604401529381019385935062000875565b906001600160401b0382116200061657600754926001938481811c91168015620009d2575b838210146200080457601f811162000998575b5081601f84116001146200092c575092829391839260009462000920575b50501b916000199060031b1c19161760075560ff90565b01519250388062000909565b919083601f198116600760005284600020946000905b888383106200097d575050501062000963575b505050811b0160075560ff90565b015160001960f88460031b161c1916905538808062000955565b85870151885590960195948501948793509081019062000942565b600760005284601f84600020920160051c820191601f860160051c015b828110620009c5575050620008eb565b60008155018590620009b5565b90607f1690620008d856fe6080604081815260048036101561001557600080fd5b600092833560e01c90816306fdde031461095b57508063095ea7b31461093157806318160ddd1461091257806323b872dd146108d5578063313ce567146108b95780633644e515146108955780633f4ba83a1461082c57806340c10f191461077557806342966c68146107575780635c975abb1461073357806370a08231146106fc578063715018a61461069b57806379cc6790146106685780637ecebe00146106305780638456cb59146105d557806384b0196e146104b65780638da5cb5b1461048957806395d89b411461039a578063a9059cbb14610369578063d505accf14610201578063dd62ed3e146101b45763f2fde38b1461011557600080fd5b346101b05760203660031901126101b05761012e610a73565b610136610e16565b6001600160a01b0381811693909290841561019a57505060058054610100600160a81b03198116600893841b610100600160a81b031617909155901c167f8be0079c531659141344cd1fd0a4f28419497f9722a3daafe3b4186f6b6457e08380a380f35b51631e4fbdf760e01b8152908101859052602490fd5b8280fd5b5050346101fd57806003193601126101fd57806020926101d2610a73565b6101da610a8e565b6001600160a01b0391821683526001865283832091168252845220549051908152f35b5080fd5b508290346101fd5760e03660031901126101fd5761021d610a73565b610225610a8e565b906044359260643560843560ff811681036103655781421161034e5760018060a01b0390818516928389526008602052898920908154916001830190558a519060208201927f6e71edae12b1b97f4d1f60370fef10105fa2faae0126114a169c64845d6126c98452868d840152858a1660608401528a608084015260a083015260c082015260c0815260e0810181811067ffffffffffffffff82111761033b578b5251902061030991610300916102da610ceb565b908c519161190160f01b83526002830152602282015260c43591604260a4359220611161565b909291926111f1565b16818103610320578661031d878787610eec565b80f35b87516325c0072360e11b815292830152602482015260449150fd5b634e487b7160e01b8b526041875260248bfd5b875163313c898160e11b8152808401839052602490fd5b8680fd5b5050346101fd57806003193601126101fd57602090610393610389610a73565b6024359033610c05565b5160018152f35b5090346101b057826003193601126101b05780518381949084546103bd81610aa4565b918285526020966001928860018216918260001461045f575050600114610404575b8588610400896103f1848a0385610b10565b51928284938452830190610a33565b0390f35b815286935091907f8a35acfbc15ff81a39ae7d344fd709f28e8600b4aa8c65c6b64bfe7fe36bd19b5b82841061044757505050820101816103f1610400386103df565b8054848a01860152889550879490930192810161042d565b60ff19168882015294151560051b870190940194508593506103f1925061040091503890506103df565b5050346101fd57816003193601126101fd57600554905160089190911c6001600160a01b03168152602090f35b5090346101b057826003193601126101b0576104f17f0000000000000000000000000000000000000000000000000000000000000000610f9d565b9261051b7f00000000000000000000000000000000000000000000000000000000000000006110a1565b90825192602092602085019585871067ffffffffffffffff8811176105c2575092602061057883889661056b998b9996528686528151998a99600f60f81b8b5260e0868c015260e08b0190610a33565b91898303908a0152610a33565b924660608801523060808801528460a088015286840360c088015251928381520193925b8281106105ab57505050500390f35b83518552869550938101939281019260010161059c565b634e487b7160e01b845260419052602483fd5b5050346101fd57816003193601126101fd5760207f62e78cea01bee320cd4e420270b5ea74000d11b0c9f74754ebdbfc544b05a25891610613610e16565b61061b610f7f565b600160ff19600554161760055551338152a180f35b5050346101fd5760203660031901126101fd5760209181906001600160a01b03610658610a73565b1681526008845220549051908152f35b5050346101fd573660031901126106985761031d610684610a73565b60243590610693823383610b32565b610e45565b80fd5b83346106985780600319360112610698576106b4610e16565b60058054610100600160a81b03198116909155819060081c6001600160a01b03167f8be0079c531659141344cd1fd0a4f28419497f9722a3daafe3b4186f6b6457e08280a380f35b5050346101fd5760203660031901126101fd5760209181906001600160a01b03610724610a73565b16815280845220549051908152f35b5050346101fd57816003193601126101fd5760209060ff6005541690519015158152f35b8382346101fd5760203660031901126101fd5761031d903533610e45565b5090346101b057806003193601126101b05761078f610a73565b906024359161079c610e16565b6001600160a01b0316928315610817576107b4610f7f565b60025490838201809211610804575084927fddf252ad1be2c89b69c2b068fc378daa952ba7f163c4a11628f55a4df523b3ef9260209260025585855284835280852082815401905551908152a380f35b634e487b7160e01b865260119052602485fd5b84602492519163ec442f0560e01b8352820152fd5b50346101b057826003193601126101b057610845610e16565b6005549060ff821615610887575060ff1916600555513381527f5db9ee0a495bf2e6ff9c91a7834c1ba4fdd244a5e8aa4e537bd38aeae4b073aa90602090a180f35b8251638dfc202b60e01b8152fd5b5050346101fd57816003193601126101fd576020906108b2610ceb565b9051908152f35b5050346101fd57816003193601126101fd576020905160128152f35b5050346101fd5760603660031901126101fd576020906103936108f6610a73565b6108fe610a8e565b6044359161090d833383610b32565b610c05565b5050346101fd57816003193601126101fd576020906002549051908152f35b5050346101fd57806003193601126101fd57602090610393610951610a73565b6024359033610eec565b8484346101fd57816003193601126101fd57828260035461097b81610aa4565b9081845260209560019187600182169182600014610a0c5750506001146109b0575b50505061040092916103f1910385610b10565b9190869350600383527fc2575a0e9e593c00f959f8c92f12db2869c3395a3b0502d05e2516446f71f85b5b8284106109f457505050820101816103f161040061099d565b8054848a0186015288955087949093019281016109db565b60ff19168782015293151560051b860190930193508492506103f19150610400905061099d565b919082519283825260005b848110610a5f575050826000602080949584010152601f8019910116010190565b602081830181015184830182015201610a3e565b600435906001600160a01b0382168203610a8957565b600080fd5b602435906001600160a01b0382168203610a8957565b90600182811c92168015610ad4575b6020831014610abe57565b634e487b7160e01b600052602260045260246000fd5b91607f1691610ab3565b6040810190811067ffffffffffffffff821117610afa57604052565b634e487b7160e01b600052604160045260246000fd5b90601f8019910116810190811067ffffffffffffffff821117610afa57604052565b9160018060a01b038093169160009383855260016020526040938486209183169182875260205284862054926000198403610b71575b50505050505050565b848410610bd557508015610bbd578115610ba557855260016020528385209085526020520391205538808080808080610b68565b8451634a1406b160e11b815260048101879052602490fd5b845163e602df0560e01b815260048101879052602490fd5b8551637dc7a0d960e11b81526001600160a01b039190911660048201526024810184905260448101859052606490fd5b916001600160a01b03808416928315610cd25716928315610cb957610c28610f7f565b60009083825281602052604082205490838210610c87575091604082827fddf252ad1be2c89b69c2b068fc378daa952ba7f163c4a11628f55a4df523b3ef958760209652828652038282205586815220818154019055604051908152a3565b60405163391434e360e21b81526001600160a01b03919091166004820152602481019190915260448101839052606490fd5b60405163ec442f0560e01b815260006004820152602490fd5b604051634b637e8f60e11b815260006004820152602490fd5b307f00000000000000000000000000000000000000000000000000000000000000006001600160a01b03161480610ded575b15610d46577f000000000000000000000000000000000000000000000000000000000000000090565b60405160208101907f8b73c3c69bb8fe3d512ecc4cf759cc79239f7b179b0ffacaa9a75d522b39400f82527f000000000000000000000000000000000000000000000000000000000000000060408201527f000000000000000000000000000000000000000000000000000000000000000060608201524660808201523060a082015260a0815260c0810181811067ffffffffffffffff821117610afa5760405251902090565b507f00000000000000000000000000000000000000000000000000000000000000004614610d1d565b60055460081c6001600160a01b03163303610e2d57565b60405163118cdaa760e01b8152336004820152602490fd5b906001600160a01b038216908115610cd257610e5f610f7f565b60009282845283602052604084205490828210610eba5750817fddf252ad1be2c89b69c2b068fc378daa952ba7f163c4a11628f55a4df523b3ef926020928587528684520360408620558060025403600255604051908152a3565b60405163391434e360e21b81526001600160a01b03919091166004820152602481019190915260448101829052606490fd5b6001600160a01b03908116918215610f665716918215610f4d5760207f8c5be1e5ebec7d5bd14f71427d1e84f3dd0314c0f7b2291e5b200ac8c7c3b925918360005260018252604060002085600052825280604060002055604051908152a3565b604051634a1406b160e11b815260006004820152602490fd5b60405163e602df0560e01b815260006004820152602490fd5b60ff60055416610f8b57565b60405163d93c066560e01b8152600490fd5b60ff8114610fdb5760ff811690601f8211610fc95760405191610fbf83610ade565b8252602082015290565b604051632cd44ac360e21b8152600490fd5b50604051600654816000610fee83610aa4565b8083529260209060019081811690811561107d575060011461101c575b505061101992500382610b10565b90565b91509260066000527ff652222313e28459528d920b65115c16c04f3efc82aaedc97be59f3f377c0d3f936000925b8284106110655750611019945050508101602001388061100b565b8554878501830152948501948694509281019261104a565b9150506020925061101994915060ff191682840152151560051b820101388061100b565b60ff81146110c35760ff811690601f8211610fc95760405191610fbf83610ade565b506040516007548160006110d683610aa4565b8083529260209060019081811690811561107d575060011461110057505061101992500382610b10565b91509260076000527fa66cc928b5edb82af9bd49922954155ab7b0942694bea4ce44661d9a8736c688936000925b8284106111495750611019945050508101602001388061100b565b8554878501830152948501948694509281019261112e565b91907f7fffffffffffffffffffffffffffffff5d576e7357a4501ddfe92f46681b20a084116111e557926020929160ff608095604051948552168484015260408301526060820152600092839182805260015afa156111d95780516001600160a01b038116156111d057918190565b50809160019190565b604051903d90823e3d90fd5b50505060009160039190565b60048110156112605780611203575050565b6001810361121d5760405163f645eedf60e01b8152600490fd5b6002810361123e5760405163fce698f760e01b815260048101839052602490fd5b6003146112485750565b602490604051906335e2f38360e21b82526004820152fd5b634e487b7160e01b600052602160045260246000fdfea264697066735822122058ba649a62979548458de1fca9c9715df7d6f1774c6aa51813612a0039b6c42464736f6c63430008160033",
  "linkReferences": {},
  "deployedLinkReferences": {}
}